:1000000000800020A10000009D000000F100000021
:100010009D0000009D0000009D0000009D0000006C
:100020009D0000009D0000008C2100009D0000004C
:100030009D000000C02100009D0000009D00000008
:1000400010B5054C237833B9044B13B1044800E0D4
:1000500000BF0123237010BD080100200000000034
:100060002423000008B5034B1BB10349034800E0FB
:1000700000BF08BD000000000C0100202423000088
:10008000044B054A9A60D3F8882042F47002C3F802
:100090008820704700ED00E000000000FEE700004F
:1000A00008B5FFF7EDFF00F08FF80A4A0A4B0B493D
:1000B0008B4206D300210A4B0A4A934206D300F032
:1000C0001BF852F8040F43F8040BF1E743F8041B44
:1000D000F3E700BF242300000001002008010020F6
:1000E000080100202401002000F084BA00F0D2BAF8
:1000F0004FF4017001F0EEBF07B501A800F068FAF7
:10010000294B9B6DDB0318D4284A136823F4FF03A3
:1001100023F4FE4343F4BC1343F4A063136052F88A
:10012000043C23F4704343F4404342F8043C52F847
:10013000043C43F4E06342F8043C9DF80530012B95
:100140000FD19DF8043063B94FF000531B68184B72
:100150001B68184B1B68184B1B68184B1B68184B07
:100160001B68FFF7C1FF01F0AEFF00F0C3FD30B91F
:1001700040F2012001F0AEFF4FF401700AE0114B94
:100180000193019B002B0BDC40F205439842F3D115
:1001900040F2032001F09EFF002003B05DF804FB55
:1001A000019B013BECE700BF00C0004034C00040B1
:1001B000004000200080002000C00020000001203E
:1001C0000040012000350C0008B54FF04023D3F863
:1001D00094305B060BD4012344F20402126801320E
:1001E00014D1BDE808404FF4027001F065BF01F082
:1001F00089FFA0F2022080B20728ECD8012303FA7D
:1002000000F010F0C90F18BF0023E5E793B14FF4D9
:10021000804001F031FE0028E3D04FF48043064ACD
:1002200093601846016881F3088881F30988406863
:100230008746FEE708BD00BF00ED00E000207047E4
:1002400030B501240025074B01445C609D601A61B4
:100250001A46DC60884201D1586A30BD10F8014B63
:100260001462F7E700800840F8B504461D461646BC
:100270000F4600F01AFADDE90612204600F01BFADC
:10028000002384F83870636232682B0CC4F839207C
:100290007268C4F83D20B26884F845302B0AC4F86F
:1002A000412084F8463084F84750F8BD30B51D46EB
:1002B00085B000F12803CDE90112009300F124027A
:1002C00000F13803294600F07BFA05B030BD00008C
:1002D0002DE9F04798B0884617469946209E8246F9
:1002E00000285DD000295BD0002A59D0002B55D0C2
:1002F0002D4D2E4B002E08BF1D461C22002111A89B
:1003000001F02FFF2A4B18AC44F8203D2946204627
:1003100000F036F92021204600F032F90122254B69
:10032000CDF8049002920393049605920693B9F1D6
:10033000000F08D03EB101A9204600F00DF904A934
:10034000204600F009F901261A4D07A92046CDF8EC
:100350001CA00896099500F0FFF80AA92046CDF8E0
:1003600028800B960C950D970E960F9500F0F4F8DB
:100370000DA9204600F0F0F8204600F00AF94FF0F1
:1003800098435A6CD202FCD55B6D40F2046013F4C2
:10039000702F08BF002018B0BDE8F087034DACE710
:1003A00040F20160F7E700BF1F2400801F24FC8497
:1003B000000001062000002010B5044600F006FCF5
:1003C0002046BDE81040002100F02ABC00F032BCFD
:1003D000014600F031BC000070B50D4C0D4E0E4DC5
:1003E000F36913EA050208D00C4A1A40002A14BF28
:1003F0006FF001004FF0FF3070BD03408B4204D01E
:10040000013CEDD16FF00200F6E71046F4E700BFC3
:1004100080969800000003400600010002000100E1
:1004200070B5134C6061E06943071DD40E1D096867
:10043000151FA1615DB90423294623612120FFF71F
:10044000CBFF58B9BDE870402120FFF7C5BF082198
:100450000846FFF7C1FF10B10423236170BD56F8B1
:10046000043B043DA361E5E74FF0FF30F6E700BF32
:100470000000034041F67132034B0121DA6342F27E
:100480000C029950704700BF0000034041F67132E2
:10049000044B0121DA6342F20C0299500022DA6324
:1004A000704700BF0000034038B541F671330E4C71
:1004B0000122E569E36341F20C03E250022360612B
:1004C00000212361212005F48035FFF785FF18B94D
:1004D00001462120FFF780FF42F20C030122E25087
:1004E0000DB10023E36338BD000003402DE9F8435C
:1004F000154641F67132164B8846DF690121DA63F1
:1005000041F20C020646DFF84C9007F48037995010
:1005100055B9284642F20C0201210D4B99500FB1FA
:100520000022DA63BDE8F88306F5005404EA090402
:10053000A41BAC4228BF2C46414622463046FFF75A
:100540006FFF0028E6D12644A0442D1BE0E700BF42
:100550000000034000E0FFFF436813B941607047AB
:100560005B685A68012AFBD159607047836813B9E8
:10057000816070475B685A68012AFBD159607047F7
:10058000C369032B9FBF00EB83020133D160C361BA
:100590007047C369042B15D84FF09842116CC902FB
:1005A000FCD504339B0013650168103B1160416862
:1005B0000C30116050F8041C034411604FF0984255
:1005C000984200D1704750F8041B1160F8E7000012
:1005D000054B5B69C3F38512827003F03F021B0B6E
:1005E00042700370704700BF00C00740004870476A
:1005F0000022000000207047024BD86900F0010083
:10060000704700BF0000034008B50346084699182C
:10061000B1F5402F04D8194601F098FD002008BD1F
:1006200040F20240FBE78318B3F5402F10B50ED916
:1006300040F2024010BDC45801340AD104339A423A
:10064000F9D801F03BFB0028F2D00020F2E70023AC
:10065000F5E740F20340EDE738B541EA0003C3F3A4
:100660000C0304469BB90D18B5F5402F08D8204659
:1006700004F5005401F014FBA54204D00028F6D183
:1006800040F2024038BD0028FAD00020FAE740F2DC
:100690000440F7E7002070474FF098435A6CD202AD
:1006A000FCD5586D00F47020704718B12422002149
:1006B00001F057BD704770B50E4615460446A0B10F
:1006C00099B12422002101F04CFD25F04003802B3C
:1006D00002D0B5F5807F0BD12046EA0840F8045BD4
:1006E000314601F033FD002070BD6FF02100FBE7C3
:1006F0006FF01F00F8E700002DE9F041884692B046
:1007000016461F46054600284ED0002A4CD0002B26
:100710004AD0046824F04003802B02D0B4F5807FD7
:1007200045D11C2200210BA801F01BFD214B2249C1
:100730000122B8F1010F18BF19462B1D0193E408DF
:100740001E4B0A9144F0005401A90AA80292039496
:10075000049605920693079708920993FFF7FCFE0B
:1007600004A90AA8FFF7F8FE07A90AA8FFF7FEFEEA
:1007700029680AA8C908FFF703FF10210AA8FFF794
:10078000FFFE00F0EBF8044650B90AA8FFF701FF9E
:10079000FFF782FF054600F0E3F8002D18BF2C4656
:1007A000204612B0BDE8F0816FF02104F8E76FF049
:1007B0001F04F5E7000101040001000410000020FF
:1007C0002DE9F04F9BB007468A469846DDF8949095
:1007D00016460AB31568002F00F0B480B9F1000F77
:1007E00000F0B080269B002B00F0AC80B8F1000F29
:1007F00000F0A880249B002B00F0A4803B6823F02D
:100800004002802A03D0B3F5807F40F09E8009EB40
:100810000A03002400930DE01546DCE795B1249A05
:1008200019F80430525D01355340269A05F00F0542
:10083000135501345445F1D3002E00F08980356002
:10084000002060E0AAEB040BBBF10F0F51D91C2272
:10085000294613A801F085FC3E4B3A6812933B1DD4
:1008600003930123D20842F00052049305923A4ABE
:100870002699CDF818802BF00F0B07930892CDF82E
:1008800024800A930B9209EB04020C9221444BF052
:1008900000520D9312A80E920F9103A9109311927A
:1008A000FFF75AFE06A912A8FFF756FE0CA912A8D8
:1008B000FFF752FE0FA912A8FFF758FE09A912A8C8
:1008C000FFF754FE396812A8C908FFF759FE5946C8
:1008D00012A8FFF755FE00F041F8A0B912A8FFF7E3
:1008E00058FEFFF7D9FE019000F03AF8019B5C44F6
:1008F00043B9269B09EB040B1C44009B5B4505D1C7
:10090000544697E718461BB0BDE8F08F7DB94246C4
:10091000249B01213846FFF7EFFE08F1100212F880
:10092000013D0133DBB213700BB99045F7D1249A26
:100930001BF8013B525D0135534004F8013B05F0C3
:100940000F05DAE76FF02100DDE76FF01F00DAE74F
:100950003046D8E703030004100000200020704751
:10096000002070472DE9F04192B005460F469046B1
:1009700000211C220BA81E46189C01F0F2FB01214D
:100980004FF000528D42CDF80480029103920497FB
:10099000059106920796089109923BD003D3022D48
:1009A0004BD0274C32E0274B12A8A40140F8203D41
:1009B0002146FFF7E5FD039B1C430394069B43F090
:1009C00014030693099B43F0140304A90AA809938E
:1009D000FFF7C2FD01A90AA8FFF7BEFD07A90AA8F3
:1009E000FFF7C4FDFFF7BAFF044678B90AA8FFF77E
:1009F000D0FD4FF098435A6CD202FCD55D6DFFF7E5
:100A0000AFFF114B15F4702F18BF1C46204612B0D3
:100A1000BDE8F0810D4B12A8A40140F8203D21460D
:100A2000FFF7AEFD039B1C430394069B43F020039A
:100A30000693099B43F02003C7E712A8044BEBE79A
:100A400080AFFFFF0002010380ADFFFF0003010341
:100A5000000401032DE9F34702281446DDE90A9258
:100A600080460E461F464ED81CB9002002B0BDE895
:100A7000F08713683F2B42D8516809B1002F3ED14F
:100A8000B8F1010F3DD0224D2249B8F1020F18BF35
:100A90000D4603F03F00E318136022BF5368013393
:100AA000536090B3C0F1400A544522D331465246B8
:100AB000484401F04BFB01234A46009329463B463C
:100AC0004046A4EB0A04FFF74DFF3F2C56440DD9D6
:100AD0003D46A309009332463B4629464046FFF770
:100AE00041FF24F03F031E4404F03F04002CBCD01F
:100AF000002022463146484401F028FBB5E73D4638
:100B0000C7E7054DC5E70548B0E73F2CF1D9E0E759
:100B100072220000322200005222000080AFFFFF4C
:100B20002DE9F041012886B004460E4690461D4648
:100B300004D045D3022841D022483CE01C272A6833
:100B4000CDE90085D3008DF80F3053098DF80E30B4
:100B5000530B8DF80D30530D8DF80C306B6820461B
:100B6000D90001EB52718DF80B1002F03F025909C8
:100B7000372A8DF80A104FEA53314FEA535394BF86
:100B8000C2F13802C2F178028DF809108DF80830F0
:100B90000D493346FFF75EFF082233460DEB020195
:100BA000CDE900852046FFF755FF3A4631460C98BF
:100BB00001F0CCFA002006B0BDE8F0812027BEE7A6
:100BC0001427BCE780AFFFFF9222000018B16C220F
:100BD000002101F0C6BA704707B590F8683001905F
:100BE000002B00F12803009300F1080314BF01203B
:100BF0000220FFF72FFF03B05DF804FB07B590F864
:100C000068200346002A009100F1280200F1080143
:100C100014BF01200220FFF783FF03B05DF804FB3F
:100C200000239942D4BF00210121C0E9003380F89C
:100C300068107047FFF7D0BFFFF7E0BF0020704794
:100C400000207047002070470020704728231B6851
:100C5000186970474FF4004070470120704710B585
:100C6000E0B04FF4C0726946002000F061F940F234
:100C700001240021684600F09EF8A042F9D040F21D
:100C80000323984203D040F2054060B010BD9DF8A8
:100C9000003003F00302022AF5D059070BD50A9859
:100CA00001F076F938B15C9800F074F918B1FFF7EB
:100CB000D1FF01F097F99DF800309A0710D528224E
:100CC00012680199926891420AD95C9800F07EF905
:100CD0000028D8D0FFF7BEFF099901F013F9D2E739
:100CE000DB07D0D503995C9800F092F90028CAD0B0
:100CF0000020CAE7FFF7B3BF00207047002070470D
:100D00000048704786E20B0031B10A4B5A688242B4
:100D100005D80023C1E9003340F20140704701309B
:100D200053F8302003EBC0035B680A604B6000207F
:100D3000704700BF1C22000001221A70704700009B
:100D400070B40D4C0E461146626882420DD90130D6
:100D500004EBC0025268F51895420AD854F83000E6
:100D60001A46304470BCFFF74FBC40F2014070BCE3
:100D7000704740F20240FAE71C22000030B50446FA
:100D80000D46A3B002AAD0F878118023D0F87001E4
:100D9000FFF7D6FF0095802302AA214604F12C001C
:100DA00000F0E8FAD4F87831C4F87C018033C4F854
:100DB000783123B030BD1FB50023CDE90033CDE934
:100DC0000213D0F87C310446A3B9D0F87821D0F8CA
:100DD00074319A420ED26946FFF7D0FFD4F87C01F5
:100DE00098B141F2070240F20123904208BF184631
:100DF00004B010BDA3785BB140F2022040F203239F
:100E0000E278002A18BF1846F2E740F20120EFE727
:100E100040F20220ECE7000070B50D46002186B0DC
:100E200006AB03F8111D02931E4B044616461160D3
:100E300028461C22CDE90333059301F092F99DF871
:100E4000072062B994F87230132B08D0D4F87C31A3
:100E50002BB9D4F87811D4F8743199421AD3237885
:100E6000990744BF636833602378DB0709D504F131
:100E7000080304F1240153F8040B8B4245F8040BDA
:100E8000F9D162B9237840F20640002B18BF002048
:100E900006B070BD02A92046FFF770FFCFE7002023
:100EA000F6E700BF390D000070B40D4C0E46114638
:100EB000626882420DD9013004EBC0025268F51815
:100EC00095420AD854F830001A46304470BCFFF7F7
:100ED000AABB40F2014070BC704740F20240FAE702
:100EE0001C220000074B5A68824207D9013003EBED
:100EF000C002516853F83000FFF7AEBB40F201402A
:100F0000704700BF1C22000010B5044660B14FF4CA
:100F100080320023C0E90023044B1A785B68027218
:100F2000C360FFF763FB206110BD00BF1C220000FF
:100F300037B50C4605461146204601F087F848B9FA
:100F400069462846FFF7E0FE20B9019BC4F87051BE
:100F5000C4F8743103B030BD38B500F58272044670
:100F60000D46202300F1BC012C3000F0BFF9D4F86D
:100F70007C312BB9D4F87821D4F874319A4203D358
:100F8000A07800B1E07838BD29462046FFF7F6FE8C
:100F9000EDE7000000B5E5B04FF4C07204A9FFF71B
:100FA000C7FF70B904238DF81130074BCDE900005D
:100FB0000290694604A80393FFF7CEFF65B05DF881
:100FC00004FB0020FAE700BF3B1E0000282300B509
:100FD0001B68E5B09B688B4203D3002065B05DF8C9
:100FE00004FB4FF4C07204A9FFF7A2FF0028F4D15C
:100FF00002238DF81130054BCDE9000002906946BF
:1010000004A80393FFF7A8FFE8E700BF3B1E00001A
:1010100000B5E5B04FF4C07204A9FFF789FF70B9BD
:1010200001238DF81130074B0090CDE9013003907A
:10103000694604A8FFF790FF65B05DF804FB002047
:10104000FAE700BF1B1E000000234FF0FF320360D1
:1010500001238B4201D30020704740F82320013345
:10106000F7E7036840F204500133012B98BF0020DA
:10107000704740F20250704770B5D1E90152AA4260
:1010800005D290F840302B449B1A402B10D90020F9
:1010900012E00A6890F84040D65C90F84120013395
:1010A000224402F03F02013486548B6080F84040B5
:1010B0008B689D42EDD8012070BD2DE9F84317469D
:1010C000D1E90125521B90F8405004462A4493422E
:1010D0000E469DF820909DF8248057D9FFF7CCFF4D
:1010E00000285DD1142341F2020084F84630BDE8A7
:1010F000F88394F84120A25C7A5594F84120013598
:10110000013202F03F0284F8412094F84020013A75
:1011100084F8402094F8402012B1AB42E9D11D463A
:10112000D6E901128A4201D2AB4231D8AB42D9D1C1
:10113000D4F8882029463846FFF782F8C4F888009A
:10114000B9F1000F04D02A463946E06CFFF73EF9AA
:10115000B8F1000F08D094F843302BB12B463A4633
:101160003946A06CFFF7A2F894F8433043B1E36D21
:10117000A26D2B449342E36524BF002384F84330DF
:10118000636D41F203001D446565B0E70025C1E7CA
:1011900031688A5C7A55B26801350132B260BFE7C6
:1011A0000020A4E7F0B590F8423085B013F0080FA6
:1011B0000CBF0826042600231546CDE9003302AAF9
:1011C00033460446FFF779FF41F20303984207468E
:1011D0002ED194F8433053B1324602A9E06CFFF7A8
:1011E000F5F802AA33461146A06CFFF75FF894F8B1
:1011F00042301B071FD5BDF808305BBA9BB22B608D
:10120000BDF80A305BBA9BB26B6094F843305BB9AF
:101210002B680B4A934207D00A4A934204D03246C5
:1012200002A9E06CFFF7D2F86B68236500236365C1
:10123000384605B0F0BD029B2B60039BE4E700BF7E
:10124000F70A0AF7FC0404FC2DE9F8430446586841
:101250000D4616461F46002843D08B0743D1FFF7A3
:10126000F5FC216E00F1040C06EB0109CC451DD8FC
:1012700000F11C02914219D28C45634638BF0B46DF
:10128000914594BFC3EB0909C3EB0209591AA3EBBB
:101290000C0005EB010868304A464146204400F046
:1012A00055FF4A46FF21404600F05BFFFFF7D2FCA6
:1012B000226E031D93420AD3B1180830814206D32F
:1012C0009B1AEA58C4F880204FF0FF32EA50D7E961
:1012D00000383246206E2946C0470020236E1E4447
:1012E0002666BDE8F88341F20200FAE7F8B54FF050
:1012F000FF361546002204460F4603F0200380F80F
:101300004620A0F8402080F8432080F8452080F84F
:101310004420C0E9182280F84230C0F888601822C2
:10132000FF21683000F01DFFC4F88060C4F88460BD
:10133000C4E91275FFF788FC28B1142384F84630FD
:1013400041F20B00F8BDFFF77DFC0028F5D1FFF757
:101350007BFC08B1002FF3D0FFF774FC30B1002DF7
:10136000EED0E06CFFF728F80020EBE7002DF8D175
:101370002846E7E72DE9F04F9B46002304468846C0
:1013800099469DB0CDE9092B269E03920B930B9AAB
:101390005A4580F0408294F84630142BF8D8DFE8A4
:1013A00013F0A400C9009D00830056003F003600E2
:1013B00011033F000B033F00ED023F000B03DE0370
:1013C0007C04150047044B0473037C040027636D01
:1013D0000F2B00F2888001251023019700950CAA9D
:1013E00009A92046FFF769FE41F20303984240F045
:1013F000CF80D4F848A0FFF783FC80230DAACDE965
:10140000000302212B465046FEF72EFFDFE70125A1
:10141000D4E914329A42C0F0478284F84650B6E7C5
:101420000DF1300AD4E91452AA420B995BD20A9BFF
:10143000AD1A94F840205B1A032D134440F2C68283
:10144000032B40F2E481402D28BF4025C1E2012555
:10145000636D072B9BD80823CDE900550CAA09A979
:101460002046FFF72AFE41F20303984240F09080A5
:1014700098F8003043F0020388F800300C9BC8F85D
:101480000430236D083BC8F824300D9B0693002BD5
:1014900079D1052284F8462094F84520636642F00D
:1014A000010284F84520D3E70025636D0B2B40F241
:1014B0007D810125D4E914329A42C0F0A081D4F88C
:1014C0008430626E1BBA0693DB439A4200F0E581DA
:1014D000142341F2050084F8463059E00025636D7D
:1014E000072B40F2158101231AE0039B1B882BB9BF
:1014F00094F8423043F0080384F8423007AA09A95F
:101500002046FFF74FFE41F20303984240D1089B6B
:101510009B4A236500236365079B934203D1022303
:1015200084F8463033E773BB94F8423018072AD565
:101530000323F5E707AA09A92046FFF733FE41F286
:101540000303984224D194F84420079B22B18D4A8A
:10155000934218D10E23E3E794F84220D1074AD5ED
:1015600094F84310002946D1874A934252D017D8A5
:10157000864A934207D00ED8814A934203D002F1A3
:10158000B642934217D1142384F8463041F2010049
:101590001DB0BDE8F08F7E4A9342F4D07D4AF0E75B
:1015A0007D4A93421DD00ED87C4A934200F0A4801D
:1015B0007B4A934217D0142307A884F84630FFF7DC
:1015C0003DFB50B3E2E7774A9342DCD0764A934240
:1015D000D9D06C4A9342EED1FFF734FB0028B9D042
:1015E000D1E710239CE7112384F84630236DA365CF
:1015F0000023E365CBE612071ED54FF60442934263
:1016000031D00DD840F2FE22934211D04FF2086241
:1016100093420FD0142384F8463041F20800B7E714
:101620004FF6035293421CD04FF601629342F1D120
:101630005D4B00E0574B0793079B564A934247D0B8
:1016400013D8524A934241D0514A93423CD002F1BE
:10165000D34202F5E81202F6F65293420CD10B2364
:101660005EE7504BE7E7474BE5E7464A934233D006
:1016700022D84A4A93423AD007A8FFF7DFFA002857
:101680003CD01323079884F84630C4F88C00FFF749
:10169000D7FA94F8423081469B067FF578AE002851
:1016A0003FF475AE4368002B3FF471AE2046984777
:1016B00000283FF46CAE69E73A4A93420AD03A4AAE
:1016C0009342D9D109232BE7042329E7062327E7EF
:1016D000072325E70D2323E7FFF7B4FA00287FF45B
:1016E00052AF94F84330002B3FF434AF4BE794F8FB
:1016F0004330002B7FF447AF122311E7142384F803
:10170000463094F84330002B87D041F204003FE785
:101710000123019500930CAA082309A92046FFF78D
:10172000CCFC41F2030398427FF432AF0C9B03F0F0
:101730007F43B3F1407F05D0142341F2090084F8C0
:10174000463025E70D9BDF0706930ED594F842300F
:1017500043F0010384F84230FFF774FA00283FF4A5
:10176000BEAE069BD80504D5B9E6FFF76DFA002892
:10177000F2D0142341F20A0084F8463008E700BF93
:10178000EB17A603FC0404FCF70909F7F40A0AF4B2
:10179000F50909F5F60808F6FA0606FAF70A0AF74F
:1017A000F90707F9FD0303FDFE0101FE0123019581
:1017B00000930CAA0C2309A92046FFF77EFC41F2F6
:1017C000030398427FF4E4AEBDF830305BBA03F413
:1017D0007F43B3F5007FAFD1BDF832305BBA4EF234
:1017E00050329BB293427FF4CEAE0D9B1BBA236660
:1017F0000E9BC4F884304FF0FF33636655E6DDE995
:101800000A315B1A94F840100B44032B05D809A940
:101810002046FFF731FC0020BAE60C3A069204237A
:10182000CDE900550CAA09A92046FFF746FC41F274
:10183000030398427FF4ACAE069B626E102B11D06E
:1018400004210CA8FEF7FCFC3346606604220CA9B8
:101850002046FFF7F9FC00283FF42CAE142384F84F
:10186000463095E6FF231CAF07F8593D0121384665
:10187000FEF7E6FC0121024660663846FEF7E0FC12
:101880000121024660660DF13200FEF7D9FC01210C
:10189000024660660DF13300D4E798F8003043F05B
:1018A000010388F800301EE6CDE900550CAA09A90D
:1018B0002046FFF702FC41F2030398427FF468AE32
:1018C00008F1080C63460CAF0DF1480E3A4603CA06
:1018D000724518605960174603F10803F6D1106885
:1018E000186098F80030604643F0010388F8003033
:1018F000FFF7B3F900287FF48BAD142341F20C00FD
:1019000084F8463044E601230EAACDE9003309A944
:1019100008232046FFF7D1FB41F2030398427FF4EE
:1019200037AE98F8003043F0040388F800300F9B7E
:10193000C8F8283098F8013059071CD50020BA4B58
:1019400060660C93236DC4F8843094F8453043F0FE
:10195000020384F84530F5686DB1336804220CA9A0
:10196000A8470822606E3368F5680EA91044A8479E
:10197000636E103363660C2384F84630636D072B67
:10198000C1D904E50423CDE900550CAA09A92046D4
:10199000FFF793FB41F2030398427FF4F9AD94F80B
:1019A00042200C9B1207069344BF1BBA0693236D7B
:1019B000042B02D9069B23660125636D032BE1D915
:1019C0000A23ADE5002363660823A9E59D423FF69F
:1019D0001EAF9D4228BF1D460123032D88BF25F061
:1019E0000305CDE9003352462B4609A92046FFF7EF
:1019F00064FB41F2030398427FF4CAAD94F8463089
:101A0000082B0FD1B7686FB133682A465146606E14
:101A1000B847636E1D44656604E54FF0FF320AF86F
:101A200005200135032DF8D90A2B06D133462A4665
:101A300051462046FFF708FCF4E4052B18D198F82E
:101A400001309F077FF5EEACF368002B3FF4EAAC62
:101A5000626E042A0AD85319062B07D90DAB9B1ABC
:101A60001A68C4F884204FF0FF321A60F768CBE799
:101A70000C2B7FF4D7AC98F8013058077FF5D2AC27
:101A8000F768002FC0D1CDE494F84230990607D50D
:101A9000D4F88C00FFF7D4F8814600283FF476ADE7
:101AA00001273FE0002B58D0B9F1000F55D0D9F8ED
:101AB0001030002B51D020469847DDE90A53ED1A2B
:101AC00094F840302B4498423FF6A1AED4E914522A
:101AD000AD1A402D28BF40259D4228BF1D46CDE9A7
:101AE00000772B460CAA09A92046FFF7E6FA41F237
:101AF000030398427FF44CAD94F842309A0611D516
:101B0000B9F1000F3FF442ADD9F808A0BAF1000FC7
:101B10003FF43CAD33462A460CA92046D047002866
:101B20007FF436ADD4E9142194F84230914203F0A9
:101B30002003B7D3002B3FF4D6ACB9F1000F3FF42C
:101B4000D2ACD9F80C30002B3FF4CDAC3146204656
:101B5000984700283FF4C7AC1AE50120ADE7002301
:101B60000CAACDE9003309A904232046FFF7A5FA02
:101B700041F2030398427FF40BADD4F888202B4B3D
:101B80009A427FF4A5ACFFF75DF810B9012388F8FD
:101B9000033098F80330002B3ED094F845309B0773
:101BA00007D0F5682DB10422336804F18401104692
:101BB000A847236E83B3736873B34FF0FF331CAF32
:101BC00047F8583D04F1800904224946384600F0A0
:101BD000AEFA40B1FFF73EF828B1D6E9003504224D
:101BE00049461044A84704F16805042229463846AE
:101BF00000F09DFA80B17768FFF728F83368142267
:101C000004F16C010830B8477768FFF71FF8042229
:101C1000336829461044B847012388F802300F235F
:101C200084F84630F7E500BFEB17A65EE320BBDE85
:101C3000012384F8433073E494F84450002D7FF47A
:101C400052AC4023CDE900550CAA09A92046FFF764
:101C500034FA41F2030398427FF49AACE06CFEF749
:101C6000B7FBE76CFFF748F88246FFF747F85346A3
:101C7000009014AA0CA93846FEF72AFB38B11423A9
:101C800088F8035041F2060084F8463080E40123CE
:101C900088F8033084F8443025E441F2070077E403
:101CA00010B50446FEF7E6FB2046FEF7FDFB0446B2
:101CB000FEF7ECFBB4FA84F0400910BD40EA0203E1
:101CC0009B0770B505460E4614460ED17AB1FEF755
:101CD000D1FB224631462846FEF708FC0446FEF7B3
:101CE000D5FBB4FA84F0400970BD0020FCE7012068
:101CF000FAE74FF098435A6CD202FCD5586D00F4C5
:101D000070207047F0B585B06C46024626460D4BF4
:101D100003F11007254618685968083303C5BB420C
:101D20002C46F7D104AB501E13F8011D10F8012FFB
:101D3000914204D1B342F7D1012005B0F0BD00209B
:101D4000FBE700BF14230000C0F30C032DE9F041B2
:101D500005460F4616460BB9FFF7A2FF05F50054DE
:101D600024F4FF5424F01F0405EB0608A04506D810
:101D7000324639462846BDE8F041FFF79FBF20466E
:101D8000FFF78EFF04F50054F0E738B504460D4622
:101D9000FFF7B8FF40B16369012B08D1237C012B09
:101DA00005D8A3692B6038BD2C600120FBE700201B
:101DB000F9E730B59FB0044602A9406BFFF7E5FF95
:101DC00038B328221268029B12699A4223D8A34290
:101DD00021D3B3F5801F1ED803A8FEF7EDFA029AAF
:101DE0002146121B03A8FEF7F1FA03A8FEF7F0FA4A
:101DF000029CFEF781FF0546FEF780FF2B46009010
:101E000004F12002214603A8FEF762FAB0FA80F03E
:101E100040091FB030BD0020FBE770B428242468BF
:101E200003462669864206D8646913449C4202D35D
:101E300070BCFFF789BF70BC7047F8B50646154601
:101E40000F46FEF707FF84196319B3F5801F11D8F9
:101E50004EB9FEF7FFFE28231B685A69824202D959
:101E60001869FFF71DFF2A4639462046BDE8F840AD
:101E7000FFF76ABFF8BD000038B50368044603F1F8
:101E80006043B3F5C03F01D9002038BD28231B684B
:101E900042681B699342F7D8B2F5801FF4D8456BAE
:101EA0004033AB4202D8B5F5801F05D9FEF7C6F91D
:101EB00080F00100C0B2E8E7FEF7C0F920B120468B
:101EC000BDE83840FFF775BF2846FFF71BFFA8B1F4
:101ED0002B7C012BD8D86B69002BD6D0022BEED1EE
:101EE000AB69C4F1040119444FF0FF322046FEF7FC
:101EF000A7F9034BC31A58425841C6E70120C4E76B
:101F0000E320BBDE70B54FF0FF3290B006460D46C1
:101F1000FEF796F91B4B984231D11C22002101A8F3
:101F200000F01FF9184B10AC44F8403D20463146F4
:101F3000FEF726FB29462046FEF722FB2046FEF749
:101F400028FBFFF7D6FE0446C8B940F2022000F095
:101F5000B3F81C22214609A800F003F90B4B10AC82
:101F600044F8203D31462046FEF70AFB294620462C
:101F7000FEF706FB2046FEF70CFBFFF7BAFE00203B
:101F800010B070BDE320BBDE010005430100064335
:101F90004FF0FF3310B58CB01C220021044605A879
:101FA000009300F0DEF80D4BCDF804D0049301232C
:101FB00002930B4B01A904A80393FEF7D7FA04A8D8
:101FC000FEF7E7FAFFF795FE30B90098A0422CBF64
:101FD000002001200CB010BD0020FBE700000843EA
:101FE0000400002030B5054691B01C22002101A854
:101FF00000F0B7F8134B10AC44F8403D294620469A
:10200000FEF7BEFA2046FEF7C4FAFFF772FE04465A
:10201000A8B940F2022000F04FF81C22214609A87E
:1020200000F09FF8084B10AC44F8203D29462046AC
:10203000FEF7A6FA2046FEF7ACFAFFF75AFE00209C
:1020400011B030BD0000024300000343B1F5C07F72
:1020500010B5044610D34FF4C072002100F081F88F
:10206000002304F58272637004F1BC0104F12C00BA
:10207000BDE81040FFF73AB940F2052010BD13B596
:102080000446009101462C30FFF774F9C4F87C0136
:1020900018B141F20703984209D1A3784BB140F23D
:1020A000032040F20223E278002A08BF184602B05B
:1020B00010BD40F20120FAE74FF000534FF20F023B
:1020C00018805A8070474FF000534CF23C325A80CF
:1020D000704700004FF000534FF20F0218805A80F3
:1020E000BFF34F8F0549064BCA6802F4E062134301
:1020F000CB60BFF34F8F00BFFDE700BF00ED00E0F6
:102100000400FA054FF000534FF20F015A888A423B
:1021100001D1188870473AB91B8840F20220012B80
:1021200018BF4FF4007070474FF40070704730B51F
:102130000024A24201D1002007E0035D01340D1903
:1021400015F8015CAB42F4D0581B30BD431E0A4465
:1021500010B5914200D110BD11F8014B03F8014FA9
:10216000F7E702440346934200D1704703F8011B8E
:10217000F9E70000F8B500BFF8BC08BC9E46704700
:10218000F8B500BFF8BC08BC9E46704707B0CD5EEE
:10219000010000000200090134230000004000009B
:1021A00000000C00F0000100E9000000ED0000005C
:1021B000791E00004D2000007F200000D422000086
:1021C00013B779FAC925DDB7ADF3CFE0F1B614B88E
:1021D000010100000000000030230000400000006A
:1021E00002000901000000000000000000000000E3
:1021F00000000000000000000000000000000000DF
:102200000102030028000000280000000020000058
:1022100000000C002C22000004000000010000005F
:1022200001000000008006000060050045465233B2
:10223000320067452301EFCDAB8998BADCFE10323E
:102240005476C3D2E1F0000000000000000000005E
:102250000000C1059ED8367CD5073070DD17F70E1B
:102260005939FFC00B316858151164F98FA7BEFAB0
:102270004FA46A09E667BB67AE853C6EF372A54F53
:10228000F53A510E527F9B05688C1F83D9AB5BE0FA
:10229000CD198000000000000000000000000000D8
:1022A000000000000000000000000000000000002E
:1022B000000000000000000000000000000000001E
:1022C000000000000000000000000000000000000E
:1022D0000000000000010000090F0000090D0000CF
:1022E000410D0000A90E0000E50E00006310000083
:1022F0004910000073100000310F0000B70D0000FE
:10230000190E0000F905000009060000270600006C
:1023100059060000B814B6F1E0CFF3ADB7DD25C91A
:10232000FA79B713000000006500000041000000CA
:10233000FFFFFFFFFFFFFFFFFFFFFFFFFFFFFFFFAD
:10234000FFFFFFFFFFFFFFFFFFFFFFFFFFFFFFFF9D
:10235000FFFFFFFFFFFFFFFFFFFFFFFFFFFFFFFF8D
:10236000FFFFFFFFFFFFFFFFFFFFFFFFFFFFFFFF7D
:1040000018B0002029B80300510D0100B9B5030014
:10401000A70A0A010042000004180FAC2069000141
:104020000000000000000000000000000000000090
:10403000000000006CBD0300000000000000000054
:104040000000000000000000FFFFFFFFFFFFFFFF78
:10405000FFFFFFFF004005002900000000400600B0
:10406000FFFFFFFFFFFFFFFF8000000000000000D8
:104070000000000000000000000000000000000040
:104080000000000000000000ECFF0020ECFF00201A
:1040900018B00020EDF40300BAB80300B8A6002061
:1040A000083400200040060000000000FFFFFFFF72
:1040B000FFFFFFFFFFFFFFFFFFFFFFFFFFFFFFFF10
:1040C000FFFFFFFFFFFFFFFFFFFFFFFFFFFFFFFF00
:1040D000FFFFFFFFFFFFFFFFFFFFFFFFFFFFFFFFF0
:1040E000FFFFFFFFFFFFFFFFFFFFFFFFFFFFFFFFE0
:1040F000FFFFFFFFFFFFFFFFFFFFFFFFFFFFFFFFD0
:10410000FFFFFFFFFFFFFFFFFFFFFFFFFFFFFFFFBF
:10411000FFFFFFFFFFFFFFFFFFFFFFFFFFFFFFFFAF
:10412000FFFFFFFFFFFFFFFFFFFFFFFFFFFFFFFF9F
:10413000FFFFFFFFFFFFFFFFFFFFFFFFFFFFFFFF8F
:10414000FFFFFFFFFFFFFFFFFFFFFFFFFFFFFFFF7F
:10415000FFFFFFFFFFFFFFFFFFFFFFFFFFFFFFFF6F
:10416000FFFFFFFFFFFFFFFFFFFFFFFFFFFFFFFF5F
:10417000FFFFFFFFFFFFFFFFFFFFFFFFFFFFFFFF4F
:10418000FFFFFFFFFFFFFFFFFFFFFFFFFFFFFFFF3F
:10419000FFFFFFFFFFFFFFFFFFFFFFFFFFFFFFFF2F
:1041A000FFFFFFFFFFFFFFFFFFFFFFFFFFFFFFFF1F
:1041B000FFFFFFFFFFFFFFFFFFFFFFFFFFFFFFFF0F
:1041C000FFFFFFFFFFFFFFFFFFFFFFFFFFFFFFFFFF
:1041D000FFFFFFFFFFFFFFFFFFFFFFFFFFFFFFFFEF
:1041E000FFFFFFFFFFFFFFFFFFFFFFFFFFFFFFFFDF
:1041F000FFFFFFFFFFFFFFFFFFFFFFFFFFFFFFFFCF
:1042000018B0002029B80300510D0100B9B5030012
:10421000FD490300BDB50300C1B503000000000067
:1042200000000000000000000000000013B70000C4
:10423000C5B50300B37500006FBD000043C80000A2
:10424000CDB50300CDB50300CDB50300CDB503005A
:10425000CDB50300E94A030031720000CDB503007B
:10426000554703006147030011360100D53F0100A7
:10427000CDB50300CDB50300CDB50300CDB503002A
:10428000CDB50300CDB50300CDB503003BD1000093
:10429000CDB503004F540300CDB50300CDB50300E9
:1042A000CDB503008946030079460300CDB5030070
:1042B000CDB50300CDB50300CDB50300A398030031
:1042C000679803006598030045930300A1980300D5
:1042D000699803006D9803006B980300D5B2030042
:1042E000D5980300CDB50300CDB5030025640000CB
:1042F000CDB5030011500300CDB50300E7EB00007E
:10430000CDB50300CDB50300CDB50300CDB5030099
:10431000CDB50300CDB50300CDB50300CDB5030089
:10432000CDB50300CDB50300CDB50300CDB5030079
:10433000CDB50300102B70B54A4A4A4B4B4C24684C
:1043400065070CD4C60701D41C4209D100EA040554
:104350008D4208D0521EF1D16FF0020070BD2EE0E8
:104360006FF00108301D1C42FAD1002070BD70B5FD
:104370003F4D6860E8680E46410700D51FE056F8DB
:10438000040B141F0208101D241FA86044B108214B
:104390000820FFF7CFFF0100F4D00421296070BD91
:1043A000042028600021211612C4162304D10C20F9
:1043B0000ABDE87040BCE770BD4FF0FF30563013C7
:1043C00041F67131284C0122284BE568E1621A6000
:1043D000606002262636300B2D0CFFF7A8FF05F093
:1043E00001050100033C201CFFF7A0FF01211F4A2B
:1043F00011600DB10021E16270BD2DE9F843184F45
:104400003D68894614464A200A80462D0C396201CF
:1044100022154B00203A10251A6002E0B044B14446
:10442000A41B7CB108F50056760B7603A6EB0806B4
:10443000B4424946404638BF26463246FFF7919E71
:104440005003EBD00121085A10133962BDE8F28302
:10445000000080969800020001001C000340100438
:10446000130C1004000120034000000070B5044646
:1044700016460D46304600F0DBF80020207030462E
:10448000A847BDE8704000F0DCB801224D494E4815
:10449000ECE702224B494D48E8E7032249494C48E2
:1044A000E4E7042247494B48E0E738B504460D46A7
:1044B000104600F0B8F800202070A847BDE8314051
:1044C00000F0BFB8002244494448EEE700224449C6
:1044D0004448EAE7012244494448C7E780B501203F
:1044E00000F0E0F9424800F071F94249087001BD5E
:1044F00080B500F0EFF9012805D03E480078BDE80E
:10450000024000F04EB901BDF0B500253A4C00E084
:104510006D1CA68FEBB2B3420CD20C277B43234415
:104520001E78864201BF5E888E421E799642EFD188
:104530001846F0BD0020F0BD80B519B900F0AEF806
:10454000002002BDB1F1004F02D200F0B2F8F7E74F
:10455000022002BDB1F5000F3CBF0902FFF7ECBF1E
:104560000220704770B505461E46FFF7CDFF0400D8
:104570000ED0284600F0FDFC50B1A0683146FFF790
:10458000DBFF28B904990598A0716171002070BD06
:10459000022070BD1CB500F009F8012203E01CB533
:1045A00000F004F80022FFF7DDFF16BD9DF8104073
:1045B000009313460194704780B500230093FFF7E2
:1045C000EEFF02BD0F3C0300BCC20020C4C20020AD
:1045D000CCC20020D4C200207DEB0000E4C2002049
:1045E0008FC10200ECC20020E9230200DCC20020DF
:1045F0009CB10020E7FE00205CB1002080B5FFF7F1
:1046000083FF20B1806800210170002002BD0220DC
:1046100002BD0122F2E70022F0E770470C480D4985
:1046200008600020704700B170207047002070477C
:1046300080B500F013F8FF2801D1A32002BD0020AF
:1046400002BD00207047704700BF034800787047E4
:104650006EBE0300F4E40020F4C4002080B500F036
:1046600096FCFF2818BF002002BD00210170704792
:1046700000F014B8FFF76EBF38B54478456800F015
:1046800021FF0C214C438A498A4B0A59521B9A42FA
:1046900038BF0D51BDE8324000F01ABF10B50446D6
:1046A00000F04CFF6060042020702046BDE8104000
:1046B000E2E738B504460D4600F040FF2D1865606E
:1046C000012020702046BDE83240D5E710B50446F1
:1046D000207860B1042806D000F030FF6168754B87
:1046E000421A9A4201D2002010BD081A10BD4FF0A4
:1046F000FF3010BD70B5044600F020FF054600F005
:10470000E1FE0646606800226FF0004100F007F805
:10471000451925603046BDE8704000F0D9BEF8B5B7
:1047200005460E46144600F009FF024600239CB1E0
:10473000FF20207010E0087860B1042811D048688C
:104740005C4F111AB9420CD3801AB04202D206460D
:1047500004B123705B1C083529680029EBD1304671
:10476000F2BD04B123700020F2BD70B5054600F023
:10477000E5FE0646504C10E0017869B1042904D0EA
:1047800041684C4A711A914206D20423037020609A
:104790006968884700202060083528680028EBD128
:1047A00070BD10B5044600F0C9FE0C225443404AC7
:1047B000404B1159401A984207D214446068FFF7E1
:1047C000D4FF2046BDE8104094E710BD70B5044604
:1047D0003A4E3B4A70781378984204D35FF0F60162
:1047E00038A000F011FF75780C20314A2B46434366
:1047F000691C7170D11801264C600E7200E0457082
:1048000054F8080B0028FAD10846FFF773FF284632
:1048100070BD0000F8B50C244FF0FF3160430091EB
:10482000234D05F1080100220A54244B93F800009F
:1048300068B300F0EDFF20B940F22F1121A000F085
:10484000E3FE00F07BFE024600261C4BDFF864C04E
:104850005978F0B2884211D260432958571A6745F7
:1048600015D305F10807385C891A80B979B1009829
:10487000814288BF01460091761CE9E7684600F056
:10488000EAFF10B9684600F07CFE0120F2BD00F09E
:10489000ECFF0020F2BD0C214843054B01221844D7
:1048A00002727047054908707047034800687047F6
:1048B000F8CD0020010000808CF70020D4FF0020FC
:1048C0006FEF03006576656E742D636F6E74726FA3
:1048D0006C2E6300024800787047014908707047E9
:1048E000AEFF002022A1F0B50A6888B021A103A87C
:1048F0000260D1E9002700BF0FF2800120A404A8C4
:10490000D4E90056C0E90027D1F800201EA401A870
:10491000002106AB02600091C3E90056256804211E
:10492000DFF8782802AB11701D60002117A006AED9
:10493000DFF86C2803AC02EB0112655C04AC157067
:1049400036F81130538034F8113002AC9380655C36
:1049500001AB95715C5C00EBC40595601DF80140EE
:104960000125491C147355730429E1DB08B0F0BD1F
:10497000010203F2030103010301610000010102CE
:10498000040104010401E0A10101010118BC0300BC
:104990000A002600E0BC03000600140058BD030016
:1049A00001001B00DFF8F40700787047DFF8F0170C
:1049B00001EB0010407B00F001007047412818BF58
:1049C000422801D10120704700207047432818BFBA
:1049D000442801D10120704700207047F8B51546E2
:1049E0001E46069A079B044600F05EFA60B1042159
:1049F00000F0E9FC070007D02046FFF719FE324619
:104A000029462046B84795E0F1BD2DE9FE43140044
:104A1000064688461F461CBF0A9D002D20D0FFB1C8
:104A200028780C9B0107618820794CBF40228022A6
:104A300000F03AFAA0B1082100F0C5FC814678B137
:104A40002079FFF7F5FD9DF82C0000953B4601907D
:104A5000224641463046C847BDE8F743FFF7F1BD5F
:104A6000BDE8F783F8B5069C16461A460546234668
:104A700000F01AFAD0B121000BD1022100F0A3FC02
:104A8000040013D02846FFF7D3FD31462846A0473F
:104A90000BE0102100F097FC070007D02846FFF735
:104AA000C7FD224631462846B84743E0F1BD2DE90F
:104AB000FC41089C17461A460646234600F0F4F9C6
:104AC00008B9862016E000259CB9202100F07BFC67
:104AD000804670B10A9C099D3046FFF7A9FD0B98EE
:104AE00023462A46009039463046C0470546FFF720
:104AF000A8FD2846BDE8F681F8B504462078A568EB
:104B00000026FFF795FD11E0F1B214222868514309
:104B100047183988207800F0B4FE0121384600F0AB
:104B200052FC01001CBF20788847761C2979F0B21E
:104B30008842E9D3BDE8F140FFF783BD38B50024D2
:104B4000DFF858560AE0DFF86009210600EB115043
:104B5000427BD10748BFFFF7CFFF641C2978E0B242
:104B60008842F0D331BD5CB585B00A9C00268DF833
:104B70000800ADF80A108DF80C30ADF80E20019643
:104B8000ADF8104000960023002201A902A800F011
:104B900058F8019807B050BD10B5002301E0001D82
:104BA0005B1C9CB28C4204D204889442F7D14088AA
:104BB00010BD002010BDDFF8F418401A0C2290FB45
:104BC000F2F200210FF6F80010E00288B2F57C4FF7
:104BD000A8BF00F002B80846EDE7DFF8D418401A85
:104BE000142290FBF2F200210FF6D00092B2D3E72C
:104BF00010B50C460188628891420DD1037B227961
:104C0000134209D0B1F57C4F04DBFFF7E6FF2189A1
:104C1000884201D1012010BD002010BD10B51446FE
:104C20000A88E3889A420AD10288B2F57C4F04DAF6
:104C3000FFF7CBFF2189884201D1012010BD002060
:104C400010BD2DE9FE4F82B0044600250027DFF895
:104C50004C8503E0C88845197F1CFFB298F8001006
:104C60008F4280F0D780DFF8380500EB07102378FB
:104C7000017899428168EDD10091407BC107EBD565
:104C8000002603E0B9F80A004519761C0099F0B235
:104C90000A799042E0D20A68F1B2142048432146D2
:104CA00002EB00094846FFF7A3FF0028EAD04FF0C7
:104CB000000B09E09AF804000BF1010B10F0300F23
:104CC00004BF9AF803004519B9F808101FFA8BF0D1
:104CD0008842DAD21FFA8BF20C21D9F804004A4339
:104CE00000EB020A224651464846FFF797FF00288C
:104CF000E0D002982746544600B10460207981062E
:104D000011D5DFF8A807002105E00279930644BF1A
:104D1000C27851180C30A042F7D389B208EB0100D9
:104D200000F1700A04E008F10400ADB200EB050ADE
:104D30000E9E039D3046E6B121464846FFF745FFEB
:104D40000246238879883878A84600F098FD00B399
:104D50002079C1062BD5002E214648461BD0FFF7EF
:104D600034FF0095034679883878224600F098FD94
:104D700051E0002D4FD021464846FFF726FF02465E
:104D8000238879883878D046AA4600F076FD002836
:104D9000DED17E203FE0FFF718FFE1780095034663
:104DA000019179883878224600F078FD33E0BDF82B
:104DB0001000A178020008BFE278412918BF4229FB
:104DC00008D043290DD1921E92B24146504601F0BF
:104DD000BBF81DE0521ED2B24146504601F09AF88F
:104DE00016E04429EFD036B9010004D0E1788842BA
:104DF00038BF89200FD3E178B8F1000F03D15046B6
:104E000001F05AF904E00A464146504601F058F9CB
:104E1000002000E0862005B0BDE8F08F2DE9F843C2
:104E20000546894617469846002603E0217B0A0678
:104E300015D4761C2979F0B288421DD2F2B214231F
:104E400028685A43841820884845F2D1390006D092
:104E5000802FEBD0402FECD1217B4A06E9D5B0F56D
:104E60007C4F07DB2046FFF7B8FE404518BFB8F17E
:104E7000000FDED1204600E00020BDE8F28313469B
:104E800080B507E0134680B5402204E0134680B5A4
:104E9000802200E0002200F007F800B1012002BDEE
:104EA00080B500234022F6E770B50C4615461E4635
:104EB00000F06DF8FF2801D1002070BD2146DFF819
:104EC000E84504EB001033462A468068BDE8704090
:104ED000A4E770B50C4615461E46002100F02FF8D9
:104EE000042800DAEAE7002070BD1346402201E002
:104EF0000022FAE72DE9F84F82468B469046994604
:104F00000026FFF7D1FF08B9FF2016E00027DFF8E1
:104F10009042DFF8885208E04B4642465946FFF778
:104F2000D8FF00B1761C7F1CFFB22878874203DAD5
:104F30003901605C5045EFD1F0B2BDE8F28F70B539
:104F40000022DFF85C3201E0521CD2B2DFF84C42A2
:104F50002578AA420BDA14011E5D8642F4D10D00B9
:104F600003D01C44647BE507EED5104670BDFF20DE
:104F700070BD80B50021FFF7E2FFFF2801D10020BE
:104F800002BD00F031F8407B00F0010002BD0121BC
:104F9000D5E7DFF814150001085C7047F8B50C463A
:104FA000FFF7F5FF01460020FF291FBFDFF8F824B7
:104FB00002EB01118968002915D0002214270DE0A9
:104FC0001B0608E0D6B20D687E43AB19451C1B7B5F
:104FD0002600F5D05B0648BF2846521C0D79D3B297
:104FE000AB42EFD3C0B2F2BDDFF8BC1401EB00104E
:104FF0007047F8B50C461546FFF7C9FF0021FF289A
:105000001ED0DFF8A434002203EB00134FF0140C81
:1050100001E0491C521C9868D6B20779BE420FD2F3
:1050200000680CFB06F62F003044067B02D07606A3
:1050300002D4EFE73706EDD5CEB2A642E9D1F2BDF4
:105040000020F2BD002109E010B50446012100F066
:1050500005F82046BDE8104001F05AB82DE9F14F9F
:1050600086B0884601F029F94C490A780590002657
:105070000492DFF8340406E000EB01110A7B059985
:105080008A420ED0761C049AF1B291427CDA9DF8E5
:105090001830FF2BF0D01846FFF779FF0646FF289F
:1050A00079D04FF0000A01E00AF1010ADFF8F803B5
:1050B000320600F10801120D89585FFA8AF30A7965
:1050C00093425CD2142009684343CD182A8940F2E8
:1050D0002D118A42A8BF01F0CCF934064FF0000927
:1050E000240D1BE00328ACBFD7F808B007F1080B6C
:1050F0000120009000235A46002101A8FFF7A1FDDE
:105100005FEA080008D0BDF80620DFF89C03015DC7
:105110003B46584600F0CAF809F1010929891FFAEF
:1051200089F08842C0D21FFA89F20C2168684A438C
:1051300087183B79D806EFD4DFF86C130A5D8DF839
:1051400004202B88ADF806303879410628464CBF3C
:10515000802140218DF808103988ADF80A103946B1
:10516000FFF733FDADF80C003979F8784A07B9D567
:10517000D7F808B00328BBDBDBF800B0B8E79DF830
:105180001810FF293FF47EAFB8F1000F04BF9DF85F
:10519000180000F007F807B0BDE8F08F34C5002014
:1051A000F4C400207CB5044601F087F805460123CD
:1051B0007F22252100F077F8202040F20136009070
:1051C00001AB102200F065F801237F22262100F0B8
:1051D0006AF82020009001AB112200F05AF8012358
:1051E0007F22272100F05FF81020009001AB41F2F0
:1051F0000C024FF6C04100F04DF80120FFF72EFAE7
:10520000012C03D0FF2C08BFA84208D101237F2224
:10521000242100F048F800F040F800F03BF80220AC
:10522000FFF71CFA022C03D0FF2C08BFA84209D1BB
:1052300001237F22282100F036F800F02EF802200A
:1052400001F07AF90320FFF709FA032C03D0FF2CB1
:1052500008BFA84209D101237F22292100F023F8A9
:1052600000F01BF8032001F067F90420FFF7F6F9BE
:10527000042C03D0FF2C08BFA84209D101237F22B0
:105280002A2100F010F800F008F8042001F054F989
:1052900073BD3146012001F04FB91020009001ABE1
:1052A00000220621704701A801F0FFBBF8B50446B3
:1052B0001D4628790E46174681077CD500218DF8BA
:1052C000001004B96C4640F201318F421AD128888F
:1052D00010280AD100F074F838B92879410604D4AE
:1052E00000F06AF8252001F011FC288811281DD152
:1052F00000F066F8D0B92879410617D400F05CF8C0
:10530000262011E04FF6C0418F4202BF288841F2AB
:105310000C0290420AD100F053F838B928794106BE
:1053200004D400F049F8272001F0F0FB012E0FD142
:10533000062F04BF288800283DD100F041F800283E
:1053400039D12879410636D400F036F8242030E0EF
:10535000022E0ED1062F04BF288800282BD100F082
:105360002FF840BB2879410625D400F025F82820E5
:105370001FE0032E0ED1062F04BF288800281AD163
:1053800000F01EF8B8B92879410614D400F014F8DA
:1053900029200EE0042E08BF062F0CD1288850B912
:1053A00000F00EF838B92879410604D400F004F86A
:1053B0002A2001F0ABFBF1BD012322467F2170477B
:1053C0002846FFF7F8BB30B5047B012200230C42CE
:1053D00005D1002030BD144218BF5B1C5200D5B26D
:1053E0008D42F8D30069DBB250F8230030BD0000D5
:1053F0003049401A8003020C5FF000012EA0FFF735
:10540000CBBB2DE9FE4F002700284FF00108487D57
:1054100006D008B9022407E0012804D1012403E0E2
:1054200008B9082400E00424B9460D9EDDF83CB01C
:105430008A46ADF8002001931E4901EB89052888B2
:10544000BDF80010884223D1EA78224220D0A97802
:105450009DF8380081421BD39AF80F00D20608D578
:10546000B0B12846FFF7C4FFBAF81010814201D04E
:105470000EE068B9BB4513D0BDF8300087420FDAA3
:10548000A9780198C15532887F1CBFB2521C328066
:1054900009F10109B9F1270FCEDB4046BDE8FE8FC7
:1054A0004FF00008F9E70000F4C4002038BA030008
:1054B00018BC03009CB903000000000000000000BD
:1054C00000000000EFF31180302181F31188704754
:1054D00080F31188704770477FB500F011F818B954
:1054E00000F015F801F0A4FB04B070BD7FB500F02A
:1054F00007F818B900F00BF801F0B3FB04B070BD69
:105500000446084615461E4602A901F0A3BC0899A8
:10551000099833460091029901902A462046704727
:1055200080B500F00DF880B202BD80B500F008F83B
:10553000FA21B0FBF1F080B202BD000000BF000014
:10554000E0B501F06CFC6A4601F0B5FC18B14C21E5
:1055500028A000F059F8DDE9000103B000BD00000B
:1055600080B501F00FFE01F039FB20B15FF057016B
:1055700020A000F049F8002002BD01201049087069
:105580007047FEB504462168002501B91CE000F013
:105590000CF808B100F002F8012019E0019500951F
:1055A000216800233A46301D96E7054E3570054FB9
:1055B0000023019500933A46301D97E70000000054
:1055C000A8F800207B55000000F04FF90020FEBD38
:1055D00001F029FF307840B92146301D01F0AFFBC2
:1055E0002068852501F04AFC01E000203070206031
:1055F0002846FEBD73797374656D2D74696D65728F
:105600002E63000042DE704738B504460D4600F0B8
:1056100030FF01F029FF2946204601F02AFF2B46E2
:105620004FEA040275A1012001F06EFF29462046D1
:10563000BDE83440E6E768482DE9F8430168674E65
:105640004FF42068B165026A6549F2650B683366FC
:1056500049687166426AB266816AF166C26A3267F7
:10566000016B7167806B96F83810B06748074CBFC4
:10567000346CF46B01F076FFDFF868E100228442BD
:1056800001463265A14624BFAEF12007A7427165ED
:1056900006F19002544BDFF854C118D3A06970642E
:1056A000E469B464B56DC5F30805062D13D16045F2
:1056B00011D398420FD200884DF64264A0420AD11D
:1056C0007068B46840F201785060946003E0002490
:1056D0007464B46481464648814202D2014600E0C7
:1056E000091D0846704503D20C68B4F1CD3FF7D0D0
:1056F0004049081AF0640020002106F17C04C5B27C
:10570000401CC7B244F82510062FF8D30020F145FD
:105710002CD25EF8041D6145F9D39942F7D2CC072B
:10572000F5D5002406F17C0555F824708F4202D08F
:10573000641C062CF8D3062CE9D1C4B2002C06F167
:105740007C040CBF0520401EC5B244F82510DEE7DE
:10575000F16F002306F17C0506EB8304D4F880404A
:1057600045F823405B1C042BF6D911600146481E06
:10577000C9B20029ECD1B06DC0F30800032810D0E5
:10578000042811D0052812D0062813D00C2817D0D1
:105790003B2818D118480268910719D540F20258E1
:1057A00016E040F6012813E040F6022810E040F62B
:1057B00003280DE0B8F5206F0AD140F6042807E071
:1057C00040F6052804E018B14D2838BF40F60728F8
:1057D0004046BDE8F283000004ED00E00000002038
:1057E00000E300E018B00020BAB803006C440000E9
:1057F0009C00002018B000201880014A0D0A5B416F
:1058000053534552543A25703A25645D0D0A000001
:10581000EFF31080C00706D4EFF3118030288041E9
:10582000C043C00F704701207047704770477047F2
:1058300070477047704770477047704770477047B0
:1058400070470020704770477047002070477047CE
:1058500070470020704700207047704770477047BE
:1058600070477047704770477047002080F3118879
:105870007047704770470120704701207047012032
:105880007047704700207047002070470020704725
:1058900000207047002070470020704701207047AB
:1058A000012070470020704700207047002070479B
:1058B00000207047002070477047002070477047F5
:1058C0007047842070477047704770477047704733
:1058D00070470020704770477047002070470448A9
:1058E00001680878012808BF022070470000000006
:1058F000F4E4002070477047002070474FF6FE72B6
:105900000121C28181810161002202700120704762
:10591000002070477047002070470020704700202B
:105920007047002070477047B520704700207047CF
:1059300000207047704700207047704770477047DD
:105940007047704770470020704770477047704736
:105950007047000080B5FFF71AFBFF2805D0042828
:1059600003D2DFF80C15085C02BD002002BDE0B5D3
:105970000221009101AB0022032100F00CFE20B9AE
:10598000BDF8040010B1012000E00020C0B20EBD3F
:10599000F8B5069F002400250646092F02D30020F3
:1059A0000021F4BDA4460DE0A7EB000EB6441EF89E
:1059B000010C2D0245EA1465002110EB04240CF1C2
:1059C000010C4D415FFA8CF0B842EDD39D4206D8F0
:1059D00028BF944203D2101B63EB0501F4BDA01A4B
:1059E00065EB0301F4BD10B50268DFF88814138875
:1059F0000B8054884C805279DFF87C440A7103682C
:105A00001A794FF4AA53CB804A71026893799A06A7
:105A100044BF4FF4AB53CB808169627839B9C088F9
:105A2000DFF8581402F0FD020880627010BD42F0E9
:105A30000202627081691622201D00F041FB0022E3
:105A4000227110BD80B50020FEF7EDFDFF20FFF7AD
:105A5000F9FAFEF7F6FDFEF7A5FF01460122DFF891
:105A6000100401F089FDDFF80C34DFF81424522112
:105A7000DFF8100401F03DFEFEF730FD01F0AAFE54
:105A800002F066F803F011F803F022FD03F03AFD8E
:105A9000BDE80140FFF752B8704780B503F039FE0A
:105AA00020B905F035FB08B903F0FDFAFFF73BFF1D
:105AB000BDE80140FFF745BF10B5044621684879AD
:105AC000FFF765FAFF281DD0DFF8BC1301EB0010CB
:105AD000217F027B8A4215D1226840881188884242
:105AE00006D04FF6FF7399420CD1B0F5004F09DA9A
:105AF0002079022818BF032806D11189507905F0B2
:105B000099FD08B9002010BDA07B0028204602D0D6
:105B100005F0DEFD01E005F005FE00B1012010BD3D
:105B200038B515462A7854074CBF05220322934204
:105B30002ED3069C049A20602171E280A560A38187
:105B4000287800F00100A0732978890801F001018C
:105B5000E173287801212175C00800F0010060750B
:105B6000E07B30B11A46284606F0C3F8217D891C37
:105B700021752082207DA289411C2175285CA0749A
:105B8000481C2075C9B2695CC0B28242E17401D27E
:105B9000002032BD0598A06100F08FFB2077012026
:105BA00032BD2DE9FE4F80460F469246DFF8DC629B
:105BB0009B460D9D30460FF2CC41202206F0C8F8DE
:105BC000BDF830000296019500905B46524639467A
:105BD00040460024FFF7A4FFDFF89C92002863D022
:105BE000C9F81C60B07CAA4908703046FFF7FBFE7C
:105BF000304600F08EFA18BB25BB042F18BF052FC6
:105C000003D0022F18BF032F01D1012200E0002290
:105C1000F188306801910121438800930388F07C6A
:105C200000F004F988B13068817988060DD401212B
:105C300089F800100022304600F0B9F889F80040D9
:105C4000012431E0287D81072ED530684179FF2974
:105C500026D1A046874DFEF7A5FE5FFA88F1814266
:105C600022D25FFA88F0FFF794F907465FFA88F0CE
:105C7000FEF79CFE88B13068328A41883846FFF7CB
:105C8000FEF850B13046FFF7AEFE306847712F7115
:105C90003046FFF711FF00B1012408F10108DAE7EF
:105CA0003046FFF709FF044605F09EFF162109F173
:105CB000040006F059F80020C9F81C002046BDE891
:105CC000FE8F74490878401C0870FFE700F07F00E1
:105CD000704778B170490978012904D1018841F0F1
:105CE000400101807047022904D102884FF6BF713C
:105CF0000A400280704760B168490A78012A02D1DF
:105D00004A780A7001E0022A03D1017841F01001BB
:105D100001707047FEB5584D6B78D90701D500204A
:105D2000FEBDE969534C71B109688A79960603D5BD
:105D3000E28842F02002E28089794A0603D5E188B0
:105D400041F04001E1804F4A11784E07504947BF6A
:105D50000F78D7700E7856709B0709D54848018890
:105D6000281D06F03CF9697801F0FD016970FEBD5F
:105D700042490D884FF6FC76B54209DA0190404859
:105D80000092038822462946002006F0F8FAFEBD5C
:105D9000009013463A4802882146284606F0C2FA87
:105DA000FEBD0020B6E701463348C069002270B549
:105DB000044620790E461546002818BF01280BD14D
:105DC000A0680178CA0601D5300005D0A07B002864
:105DD00004BFE07C0B2801D1002070BD0021284ABF
:105DE0001180607D00B90821E07B18B9084605F0F4
:105DF00010FF06E041F0040005F00BFF208A05F0DB
:105E000017FFA07C05F005FF0B2005F002FFE07CEA
:105E100005F0FFFE304605F0FCFE2046FFF7E3FDEF
:105E20002846BDE8704075E70022C0E770B51D4602
:105E30001B4B1C78104E012C01D0337813B100207D
:105E4000307070BD0B0002D10AB1002070BD002C73
:105E50001EBF049C4FF657439C4206D003460A4699
:105E600021462846FFF70EFD00B1012070BD00005D
:105E7000D4F6002094E40020F8F6002090E40020FE
:105E800092E40020A0E40020F4C40020D8F6002012
:105E900021BD002022BD0020D1FF0020E5FE002012
:105EA00020BD002038B5D288522403469506084606
:105EB0004FF6FD7148BF4924550548BF083C1505FC
:105EC00048BF083C120448BFA41E032B0ED8DFE8CD
:105ED00003F00902060BC0B206F052FD02E0C0B2A8
:105EE00006F078FF014601E0641EE4B20846FFF7C1
:105EF000E1FC241AE0B232BD4254120A0844427056
:105F0000704708440270110A130C120E417083701E
:105F1000C270704770B50C000546164608BF0020D9
:105F200003D02178FF2902D1FF20287070BD2046C0
:105F300005F0FEFE864288BF06463246611C681C9C
:105F400000F0BEF82E7070BDF8B505460C00164680
:105F500003D1002068702970F1BD2078FF2804BFAC
:105F60006078FF2802D128706870F1BD204605F0E6
:105F7000E4FE0746BE42B8BF37463A46A11CA81CFD
:105F800000F09EF82F703F126F70F1BD2DE9F041C7
:105F9000541E002B3ED0042A37DC002300269846EE
:105FA00014E0651B002814BF10F805C04FF0000C6A
:105FB000571E4D5DA7EB0807FF000CFA07FC05FA1A
:105FC00007F74CEA03033E4308F101085FFA88F53E
:105FD0009542E6D3042A10DAD5000120D2006D1EC6
:105FE00000FA02F2524243FA05F1CC0746FA05F0F4
:105FF00048BF1343C00748BF16439E4215DBB34258
:1060000003DA4FF0FF30BDE8F0810020FBE7AE423D
:10601000F7DB5B1CDDB29542F7D2651B00280CBF95
:106020000026465D4D5DB542F1DA0120EBE7000048
:106030005FF000011BA201E0891CC9B2535C8342DE
:10604000FAD3501840787047283808288041C00F8C
:10605000704710F0E00011D0802806D0A02806D0AC
:10606000C02806D0E02806D007E01C2070471D207D
:1060700070471E2070471F207047FF20704700F0B8
:106080001F0070470000000000000000000000003A
:106090000000000000000000000000000000000000
:1060A0000000000007021F012F0037013F005701C9
:1060B000DF02E700FF020000002207F035B870475A
:1060C00062B181423ABF5318984205F043BE80182E
:1060D00013F8011D521E00F8011DF9D1704780B55B
:1060E00007F02CF8FFF7AEFCBDE8014008F0D2BC89
:1060F00080B5FFF7E4FBBDE80140FFF7CDBC80B5FC
:10610000FFF7DEFB08F06DFDBDE8014008F08FBD34
:10611000704708F0CABD08F0FDBF3EB5BDF81C4091
:10612000BDF818500194009502F085F83EBD38B5D1
:1061300004460D46FFF709FC2946204608F0C3FC3B
:1061400029462046BDE8344009F09DB9FFF7E7BB7A
:10615000FFF7F1BB2DE9F0427D4E002030707D4C01
:1061600020683821382505F0FFFD33787A49087812
:1061700022686B43D0543078216800226843084479
:1061800042703078216868430844827009F0B1F9A0
:10619000327821686A430A44107209F0AAF9327809
:1061A00021686A430A445072317820686B4A694317
:1061B000014410786A4AC8703378216817686B43C5
:1061C000C818476167490A7802763078D4F800C069
:1061D000654A074615FB07F312680CEB0301CA6119
:1061E000624AD2F800902C22574309EB07020CF1C7
:1061F0003407FA5009F08EF93078216815FB00F564
:1062000001F1340251594A680968BDE8F04209F0C9
:1062100026BC80B592B06A460021002009F0F5FD49
:1062200008B1012018E05249524A0A910B92524992
:10623000524A0C910D9210915148524A524909907C
:10624000524B0F9211910E936A460021002009F0E3
:1062500001FD00B10120C0B213B000BD80B5002027
:1062600000F01AF828B1002000F005F808B100206D
:1062700002BDFF2002BD364A364813780168382037
:106280004343C818807802281CBF1128432801D135
:1062900001207047002070472D4A2E48137801686E
:1062A00038204343C818407801281CBF022803281F
:1062B00001D1012070470020704700207047002066
:1062C00070477047002070470120704770470020DA
:1062D0007047704770470020704780B500F020F885
:1062E00020B10020FFF7D8FF00B1012002BD80B52A
:1062F00000F016F808B1002002BDFF2002BD10B565
:10630000044600F00DF848B100F019F84078012873
:1063100018BF022802D10CB9012010BD002010BD09
:106320000020A8E780B5FFF7FBFF30B100F007F8C9
:106330004178032901DA002002BDFF2002BD044A92
:1063400004481378016838204343C8187047000098
:10635000D6FF00207CB400200DBD00200EBD002023
:1063600084B4002001BD002088B4002080B4002047
:10637000AB93010039580000618F010075050300DF
:10638000819201009F8301009DD901005991010074
:106390000021002009F035BE7047002818BF0AF020
:1063A0001CB970470AF0B7BC0AF084BB33B585B09E
:1063B00005468DF8042004F005FE0446284604F046
:1063C00011FE7CB10028BDF818000FD104F046FF83
:1063D000FF288DF8000004BF00218DF80010CDF8D3
:1063E00008D016E0A8B106A8029012E004F036FF2B
:1063F000FF288DF8000003AA04BF00218DF80010CB
:106400009DF80000BDF8181002928DF80C00ADF850
:106410000E10DDE901010A460146284603F07EF828
:1064200007B030BD0AF094BC7FB500BF23A191E84E
:106430001C006846032180E81C0001250D268DF80C
:1064400007108DF800508DF80660082124200AF00E
:10645000B9FD694612480BF067F84FF40060114926
:1064600008600222104B1A60104C206010490A602C
:106470007FBD0B480BF047B8A52803D10021084881
:106480000BF030B870470B48006805E00A4908680F
:106490000028FCD17047C84000F0010070470000A0
:1064A0000080014A84E200E018A0014A04E100E013
:1064B0001C90014A0480014A2480014A0100000026
:1064C00000000F00000000002DE9F84785B0109D86
:1064D0000F9F0E9C0295019706468A469046994664
:1064E0000094FFF7C8F9010003D0022803D002D3BB
:1064F0000EE001200CE00CBF0120002000210491DF
:10650000039002950197009400F0BDF900F00AF99C
:1065100006B0BDE8F08778B585B000240494012565
:106520009DF82C600A9C0395002520E078B585B085
:1065300000F008F880231DE078B585B000F002F87F
:10654000402317E09DF8286000240125019304945E
:10655000039502960094704778B585B00124002514
:10656000049403959DF830600B9CBDF8285002966A
:106570000194009500F0D6F806B070BD7FB5099C77
:106580000A9D00260294089C03950096019400F051
:1065900089F904B070BD38B584B000F002F840232A
:1065A00007E0089C0025019303950294009570472D
:1065B000019400F077F905B030BD2DE9F84F84B0B3
:1065C000DDF8389090461C4605468A464B462246E2
:1065D0000026ADF80060FEF767FCB34607008DF8B3
:1065E0000450ADF806A08DF80840ADF80A80ADF86B
:1065F0000C904BD001A9FEF7FBFA002846D0ADF86D
:1066000002800024DDF83C90DDF840A0BDF8008059
:1066100015E0B1B249450FD205F00AFBA87805F0A4
:10662000F8FA5FEA0A0006D02879C10754BF0520AE
:10663000072005F0EEFA761C08F10108641C398980
:10664000A0B288421AD2A2B20C2178684A433B8891
:106650008518B3F57C4F09DA288801AA2946ADF8D8
:106660000A003846FEF7DAFA0028E7D02888BDF895
:1066700002108842CDD20BF1010BDDE7B6B21FFA52
:106680008BF006441FFA88F0864201D1012000E019
:10669000002005B0BDE8F08FF8B58EB0159D164608
:1066A000052D30DB04AA0392BDF85020212405AF4C
:1066B000009202940197324600F0F4F8040024D1CD
:1066C0009DF81000212205A90AF074FF04001AD0D9
:1066D0002D1FA54217DB304605F0AAFA002005F071
:1066E00098FA9DF810000D4D05F093FA2E88C6F12A
:1066F00052018C4207DA0A4B224605A99819FFF786
:10670000DFFCA4192C800FB0F0BD304605F090FAE4
:10671000204605F07EFAF6E70000000092E4002033
:10672000A0E400202DE9F84F88B00646129D002015
:106730008A4690469946049000908DF81460ADF812
:1067400016A08DF81890ADF81A80ADF81C500023F3
:10675000002204A905A8FEF774FA049808B9862057
:106760008DE0159860B904999DF850008A789042A0
:1067700018BF8D20F4D10979C80758BF8820EFD5FC
:106780000498139F0179480726D5049988684168C1
:106790000498029181688868049901908878FFF7CD
:1067A00053FC834604985B46C1788DF8001002299B
:1067B0000A4639461EDC02A8FFF7E8FB9DF80020D8
:1067C00004465B46394601A8FFF7E0FB012C1CBFDD
:1067D0004FF0FF3188421CD0169800284ED1049803
:1067E0004FF6FF72394680780AF0E4FE040012D1B9
:1067F000012044E00298FFF7C9FB012809D09DF869
:10680000002001985B463946FFF7C0FB10F1010FED
:10681000E2D1872033E00397C0B200F039F8FFF7E8
:106820007AF801002BD10397E0B200F031F8FEF7BF
:106830003EF9010023D10120009000233A460021B7
:1068400005A8FEF7FEF9010019D1049B5246314616
:106850003846FEF72BFD029700F01BF802F030FCE3
:1068600003979DF85000E4B20294019000F00AF8FA
:10687000FFF750F800F006F8FEF7F4F8002009B032
:10688000BDE8F08F00954B46424651463046704772
:1068900002909DF8500000954B46019042465146AB
:1068A00030467047F0B585B01C460A9E0B9D0C9B88
:1068B000002701978DF80800ADF80A108DF80C40FC
:1068C000ADF80E20ADF8106000972A4601A902A885
:1068D000FEF7B7F9010004D10D9911B1019A93782F
:1068E0000B7005B0F0BD70472DE9F84F88B00AF085
:1068F00087FE08B1C620D5E0DFF8B452DFF8B462F5
:10690000316828680CF025FA04002CD032685168F0
:1069100000241068926913689847316802A88A6950
:1069200091688847326802209169CA68904706E0FA
:106930000968126900FB0410641CE4B290470398D4
:1069400031684B68B3FBF0F38A699C42F0D3D1689D
:106950000020884730688169486880473168286826
:106960000CF0F7F904460027DFF84C62002C71D1D7
:10697000DFF8480250F82790DFF84412C85DD8B11C
:10698000286801AB6A4649460CF0E7FBB04208D0E4
:1069900000285FD1009801285CD0286849460CF097
:1069A00021FCDFF8200250F8271028680A684946C1
:1069B0000CF017FB04464DE0DFF80C12CA5DDFF85F
:1069C0000C324FF0000A0792D95DDFF8F88106918A
:1069D00005E001980799884217D10AF1010A069843
:1069E00082451BDA28680AEB090B01AB6A46594657
:1069F0000CF0B3FBB04208D00028EED1009800287C
:106A0000E7D0286859460CF0EDFB079B58F8272083
:106A1000286859460CF05FFA0400DED0DFF8B011A8
:106A2000C85DB8B1DDF8188001E008F10108B8F1DF
:106A30007F0F0FD2286808EB090A01AB6A4651465E
:106A40000CF08BFBB04205D0286851460CF0CAFB15
:106A50000400EAD07F1C432F88DBDFF878011CB9E3
:106A600001210170002415E000210170002CF9D0F3
:106A7000DFF86401241A08D0641E08D0A41E08D0D0
:106A8000241F0CBFC124C52404E0C22402E0C32497
:106A900000E0C4242968087C18B1D32142A0FEF785
:106AA000B3FD204609B0BDE8F08FF8B50E46154697
:106AB000432E20DADFF81C21117881B1DFF8F020B5
:106AC0001468DFF8FC20915DDFF8F07041B157F8F1
:106AD0002610024620460CF0C9FA00B146E0F1BD8E
:106AE0007F2D024657F8260008BF002529182046AA
:106AF0000CF031FAF1E7B1F5807F04D301B0BDE8C5
:106B0000F0400CF01FBC40F2011133E0F8B506462E
:106B10001546432E1EDADFF8BC20107878B1DFF876
:106B200090201068DFF89820945DDFF890703CB1F9
:106B30002A6857F826100CF054FA00B116E0F1BD9F
:106B40007F2957F826402A4608BF002109190CF072
:106B5000C2F9F2E7B0F5807F05D31A462946BDE8B1
:106B6000F8400CF03ABC4FF49A7103E0BDE8F240F3
:106B70000CF0B2BC0CA0BDE8F440FEF745BDDFF858
:106B800054201178002900D1704710B50B4B53F8F1
:106B90002010074C206800220CF09CFA18B1BDE8C8
:106BA00010400CF099BC10BD746F6B656E2E6300C5
:106BB000E8B80020ECB800200BE000F0BCCB0300EC
:106BC000C8CC03007CD0030050CD030094CD03005B
:106BD0000CCD0300D0FF002001E000F070B5FEF7FF
:106BE00071FC0446DFF83C552878E0B90021E960E3
:106BF0002861A9800CF078FC01200CF0D7FC0CF087
:106C000031FD0200AA6004D12046FEF761FC23207A
:106C100070BDDFF8140540F2E73100230CF036FDBB
:106C2000012668612E702046FEF752FC002070BDE0
:106C3000F8B5044684B000F02BF80CB922200EE021
:106C400003A9204600F05FF89DF80C00012808BF5A
:106C5000032004D000F013F8002200F023F805B060
:106C6000F0BDFEB504000D4616461F4601D1222098
:106C7000FEBD00F023F800F018F800220FE0BDF888
:106C80002C009DF828100290009701913346704720
:106C900000200D4616461F468DF80C00704700F088
:106CA00001F8FEBD2946204611E2BDF824009DF8FA
:106CB000201002900097019133467047F8B50546C1
:106CC00000240DB92220F2BDFEF7FCFB064600F0C1
:106CD000EDF9DFF85074F868A842284608BF01248F
:106CE00000F0ADF9050003D000F086F82846F2BDAB
:106CF000F8681CB118B100F0BDF903E010B902202A
:106D00000CF061FC4AE038B505000C4618BF002CB9
:106D100001D1222032BD00202070FEF7D3FBDFF826
:106D20000414CA6800E092682AB1217819B9AA420D
:106D3000F9D101222270FEF7CBFB002032BDF8B55D
:106D400005000C4618BF002C01D12220F2BDFEF731
:106D5000B9FB064600F0AAF96869DFF8C87320603D
:106D6000F86805E0A0B12168426951182160806887
:106D7000A842F7D10CF0EEFB39692268401A904224
:106D80000AD20CF0E7FB22683969101A081804E0EF
:106D900000F032F80320F2BD0020206000F02CF853
:106DA0000020F2BD2DE9F04180460C46FEF78AFB3B
:106DB0000646DFF870730025F86800E08068B0B11F
:106DC0004169C2884D194245F8D10CF0C3FB3969BD
:106DD000401AA84205D20CF0BDFB2D1A386945199E
:106DE00000E00025256000F007F8002002E000F038
:106DF00003F81B20BDE8F0813046FEF769BBDFF8E1
:106E000024034078704738B5FEF75CFB04460CF06D
:106E1000A1FB05462046FEF75BFB284632BD70B558
:106E2000FEF750FB06460CF095FB0546DFF8F40232
:106E3000848801200CF0DDFB18B10CF08BFB0546BB
:106E4000641CFFF7D9FF2146284670BDDFF8D40245
:106E50008068704710B50C46B2494A6982420BD32C
:106E600089684FF47A720023A1FB00010CF00EFC3C
:106E7000401C2060002010BD212010BDA94A70B523
:106E800096684FF47A71A1FB0045304600F057F93F
:106E900048B1304600F04EF9024620462946BDE88A
:106EA00070400CF077BC2046294632460023BDE8EE
:106EB00070400CF0EBBBF8B59C4D9D4CA94222D81C
:106EC00028BFA0421FD24FF47A76964BA6FB00450E
:106ED0009F6806FB01551646384600F030F940B170
:106EE000384600F027F90246204629460CF052FCAD
:106EF00005E0204629463A4600230CF0C7FBC6E9C8
:106F000000010020F2BD2120F2BD2DE9F843054625
:106F1000844CE80708D5A188491CA18000F0C6F878
:106F2000E06808B100F0A6F8A80761D50CF012FBE4
:106F3000276905460026B046EF1B3BE048698742BB
:106F40003ED33A460846256143699A4209D30679F9
:106F500091F804E0764538BF01468068D21A0028CF
:106F6000F2D10E464846FEF7B3FA7069002171610E
:106F70003F1AFEF7A7FA8146304600F060F848460F
:106F8000FEF7A6FA306948B1FEF79CFA31698146EE
:106F9000304600F030F84846FEF79AFAF26812B12F
:106FA0003168304690470CF0D5FAC7197F1B08F1BD
:106FB00001080546FEF786FAE16881460029BDD141
:106FC000B8F1010F03BFF088022801200020A07053
:106FD00031B14869C71B4F61256100F04BF802E0F1
:106FE00002200CF0F0FA4846BDE8F243FEF770BA12
:106FF000BDE8F1830000F0B541614A4EF468D4B1B8
:1070000000256369994206D22BB1CA1A09D12279A7
:107010000779BA4205D2C91A41612546A468002CF5
:10702000EFD1002D14BFA860F060220005D0636985
:10703000591A616101E0F06000228260F0BD394BB5
:107040000022D96801E00A468968002918BF8142F8
:10705000F9D1814201D0022070478168002A14BF13
:107060009160D960816819B14A69406982184A61A2
:107070000020704738B52B4CE168256948694519EF
:1070800002200CF093FA28460CF06AFAE06800211E
:10709000002283799D0706D4806828B14369591876
:1070A0000229F6D300E00122627031BD10B50CF068
:1070B00051FA1C4AD16841B113694C69C31A9C4208
:1070C0002EBFE31A001B00234B61106110BD70B589
:1070D0000C46059906461546049A069831713260A9
:1070E0000021B1603561F360F0803CB9F2687161F4
:1070F00012B131683046904795B12C46FEF7E2F95F
:107100000546FFF7D3FF21463046FFF774FF0548D9
:10711000C168B14208BFFFF7ADFF2846FEF7D8F9B6
:10712000002070BD04F6002018FCFFFF37894100E5
:10713000F0A7C64BB0FA80F0C0F11F00704720B135
:10714000411E084201D1012070470020704770475E
:1071500001463D48814202D14FF0FF3070473B4A23
:107160004FF6FF7091420BD0394B01D0994207D0B6
:10717000914218BF994202D0364A914200D0002075
:1071800070470000F8B588B00DF110003BA1102247
:1071900004F0DEFD0D22002168460CF00AFB0220FF
:1071A0008DF80600284C6A46002120460CF08CFB26
:1071B0002046FFF7CDFF206B4FF6FF71E161002203
:1071C000ADF81220244D04A920460CF027FB062020
:1071D00009F0C2FDBDF912104A1CB0FBF2F0491CC7
:1071E000ADF8121009B26860B1F5806F02DA1B4980
:1071F0008842E8D20F2009F0AFFD6E68184FB7FB48
:10720000F0F718480021E7FB0601174A00230CF0AD
:107210003DFAA86000262E70A0694021134B20F093
:107220001000A061124801601960002009B0F0BD93
:1072300011480068C10605D510200E4A10600121D2
:10724000054B1970704700000080044000C00440E6
:107250000000054000400540C8F6002081841E0063
:1072600000B0710B20A1070040420F0000E100E0D8
:1072700080E200E014A004401480044001000000FB
:1072800000000000000000000000000068480068E6
:107290006849664A000C00040860106070470100ED
:1072A0000FD44009644A52F8202001F01F01CA405F
:1072B000D20706D5614B53F82000C84000F001000A
:1072C000704700207047000080B50CF05BFB20B1D8
:1072D0005FF08C0160A0FEF797F959495948BDE865
:1072E00004400CF01ABC000070B505460E464E4C2A
:1072F00028002FD130460021012E616018BF0020E8
:107300000CF0BBFE761E032E46D8DFE806F0021214
:10731000142001210120FEF71BFBFFF7B4F82070B9
:1073200010B1A520FFF7A8F80120BDE870400CF0CF
:10733000A4BE022100E004210120FEF709FBFFF7B3
:10734000A2F8002828D0BDE87040FFF79FB80521BB
:1073500001201DE0207818B101213B480AF0C2F855
:107360002846012D18BF00200CF0A7FE6D1E032D2E
:1073700012D8DFE805F00207090B01200CF09DFE92
:10738000012104E0022102E0042100E005210020A7
:10739000BDE87040FEF7DCBA70BD38B524484168DE
:1073A0000468214D1A200C40A4B26C60FFF777FFEF
:1073B00018B91920FFF773FF10B144F480346C60E2
:1073C0000A20FFF76CFF18B1686840F4003068606D
:1073D00031BD000038B50024012808BF01240CD0BD
:1073E000022814BF0328022407D0042808BF03245E
:1073F00003D0052808BF0DF089F800BF13A52A4661
:10740000012120460CF057FB0DF0C2F8FEF72DFAD3
:107410000CF0DCFA0DF0BEF82A4620460021BDE84B
:1074200038400CF048BBD5E724F600202CF60020AD
:1074300020C4034020E4034000E200E000E100E05B
:1074400018B900201CF600200080014A416E6F6EC2
:10745000796D6F7573000000736C6565702D6566DE
:107460006D33322E63000000302080F311887047A6
:1074700070477047704770472DE9F0410446012579
:10748000012C8AB00F46904618BF202C1E4619D1F9
:1074900068462449282204F05BFC012C18BF202CEC
:1074A00008D0022C18BF212C04D0032C1CBF222C86
:1074B000232C14D10197ADF81080012E04D14FF484
:1074C000805005E001200BE0022E03D14FF4405024
:1074D000ADF80E00694620460CF005FE0546E8B200
:1074E0000AB0BDE8F0810CF0A4BE80B50CF0ACFE93
:1074F000C0B202BD80B50CF00DFFC0B202BD80B5B8
:107500000CF08AFFC0B202BD0CB40A4680B5014639
:1075100002AB05480DF07EF8002002BC5DF80CFBC4
:107520000000000094CB0300C143010010B50446E5
:10753000FFF79AFF200A00280B484FF20F0108BFFF
:10754000240204804180BFF35F8FBFF34F8F074950
:107550000A68074802F4E06202430A60BFF34F8FF3
:1075600000BFFDE703487047000000200CED00E07D
:107570000400FA05B8A6002062F30F2262F31F424E
:1075800000B500BF130096469446103928BFA0E806
:107590000C50FAD85FEA417C28BF0CC048BF40F8C5
:1075A000042BC90728BF20F8022B48BF00F8012B85
:1075B00000BD70472DE9F24F022940F39580190074
:1075C00005D0BDF800100529F7DB42F00402824621
:1075D00001268AF80020180005D08AF801301B0A1D
:1075E0008AF8023003260A9CFEF76BFB0AF80600B5
:1075F000761CB0B20AF80040761C4FF0000BDDF8A4
:10760000309007E0BAB24146504404F0A1FBBE19E5
:107610000BF1010B0B985FFA8BF1405C002865D0F1
:1076200000250024A046732834DC4C2859F8048B2C
:107630001CBF5328622811D159F8047B4C2806D16D
:10764000BDB24FF6FF70854236D0022434E0532895
:1076500032D1FDB2FF2D2FD001242DE06C2804D1B2
:10766000404604F06AFB871C26E0732804D140469C
:1076700004F05EFB471C1FE0A0F130010A2938BF6F
:10768000A0F1300718D3A0F1410107292CD2A0F1B5
:10769000370711E00027752808BF01240AD0762893
:1076A00008BF022406D0782808BF032402D0772818
:1076B0001AD1042459F8045BBDF80010B2B2B8B274
:1076C0008218A218914205DA0EE00AF80050761CE2
:1076D0002D0A641EE1B2B0B20029F6D1B9B2002978
:1076E00096D0B8F1000F8DD1002000E0B0B2BDE817
:1076F000F28F10B5364C60602180A260E36010BD4F
:107700007FB50C46009309A91346314D0291089E9E
:107710000246298868680196FFF74CFF00F012F8CE
:1077200004B070BD3EB50C4606A90092284D0291EA
:1077300002462988686801930023FFF73BFF00F0A9
:1077400001F83EBDA9684FF4AA520880E9684C8050
:10775000CA807047034610B51D4884684268C068F7
:107760002188BDE8104004F036BE0020F2E73EB5A7
